:1000000027C236C235C234C233C232C231C230C254
:100010002FC22EC22EC22CC22BC22AC229C200005D
:10002000C2009B0180023B03FFFF1747C784FE10FD
:10003000FE115E6611FEFE115E661158FE155488B3
:10004000FE114A6A11FEFE114AFE114A6A11FEFEB5
:1000500015627A6A11FEFE114AFE11FEFE154488F1
:100060006211FEFE115C6211FEFE115C621144FE23
:1000700015FE8CFE114E6C11FEFE1166FE11FE6C1B
:10008000114EFE154A926A15FE8EFE15628C6C1595
:100090004A84FE1146FE11FEFE115E6611FEFE113F
:1000A0005E661158FE155488FE114A6A11FEFE1153
:1000B00062FE15FE826A114AFE15627E6A11FEFE1C
:1000C000154A7AFE11FEFE154488700142015C015A
:1000D000FE155C846C014400154EFEFE01FE0166B7
:1000E00001FE014E014A01FE016201FE1146FE11B0
:1000F000FEFE115E5E11FEFE155E7EFE1146FE15D1
:10010000FE82FE1546FE5E15FE84FE1546FEFE15B9
:1001100046845E11FEFE155E88FE15FEFEFE154647
:1001200082FE11FEFE154AFEFE15FE7EFE154A7A7F
:100130006211FEFE1162FE15FEFEFE114EFE11FE64
:100140006611FEFE114EFE114E6611FEFE1166FE98
:1001500011FEFE11625C11FEFE1146FE11FEFE1143
:10016000465E11FEFE15467E5E10FE154682FE15A9
:10017000FEFE5E154684FE155EFEFE154684FE15E7
:10018000FEFEFE155E7AFE15FEFEFE15467A621133
:10019000FEFE154A886A15FEFEFE116262154A923D
:1001A0007011FE621562FEFE154E8C6C01FE05FE9E
:1001B000FE11FEFE11666611FE6A11666C115E701C
:1001C000114A74107A11467611FEFE115E5E15FE1C
:1001D0007AFE155E7E5E1146FE15FE82FE1546FE17
:1001E000FE15FE84FE1546FE5E154684FE11FEFEDB
:1001F000155E885E15FEFEFE154682FE11FEFE119E
:100200004A6211FEFE154A7EFE15FE7A621162FEFA
:1002100015FEFEFE114E6611FEFE11FEFE114E662B
:10022000114E6611FEFE11666211FEFE1162621130
:10023000FEFE11465E11FEFE11465E11FEFE1546E3
:100240007E5E10FE154682FE15FEFEFE154684FEFD
:10025000155EFE5E154684FE15FEFEFE155E7A5E98
:1002600015FEFEFE15467AFE11FEFE154A88621541
:10027000FEFEFE15628862154AFEFE15FE886215B6
:1002800062FEFE154E8C6215FEFEFE15FE887A1586
:10029000FEFEFE1566FEFE15FEFEFE15667A621572
:1002A0005E7E66154A846C147E6615468C6C01FE73
:1002B000155EFEFE15FE8C6C015E1546FEFE154AAF
:1002C000886A0010FE0562FE014A013215627A62F8
:1002D00015FE7E66154A846C15627E661544886A32
:1002E00001FE155CFEFE15448C7001FE155CFEFEE1
:1002F000154E846C0011FEFE1566826A154E7E66F0
:1003000005FEFE154A7A6215FE7E661562846C153E
:100310004A7E661546845E10FE155EFE5E01461539
:100320005E887611FE5E154A824A10FE01FE116259
:1003300062154A7E4A11FEFE11626211FEFE154AE6
:100340007A4A11FEFE1544885C001484FE04FE15F2
:100350004E8466000015FEFEFE00000000106210D4
:1003600066106C106615408C6C01FE1558FEFE156B
:10037000FE886C05588C1140FE154A886A0010FEF4
:100380000562FE014A013215627A6215FE7E66152B
:100390004A846C15627E661544886A01FE155CFE0F
:1003A000FE1544927001FE155CFEFE154E846C0035
:1003B00011FEFE1566826A154E7E6605FEFE154A22
:1003C0007A6215FE7E661562846C154A7E66154655
:1003D000845E10FE155EFE5E0146155E887611FE97
:1003E0005E154A7E4A1482FE01FE116262154A7E43
:1003F0004A11FEFE11626215FE7AFE154A7A4A1112
:10040000FEFE1544885C0010FE04FE154E84660056
:100410000011FEFE000004FE0010621066106C1059
:100420006600470043403FA03B4038203520326003
:100430002FA02C202AC027802545464765666700E7
:10044000202B2D2E30313233343536373839680091
:1004500011241FBECFE5D2E0DEBFCDBF20E0A0E675
:10046000B0E001C01D92A038B207E1F7BCD1EFC3E4
:10047000C7CD1F920F920FB60F9211242F933F9367
:100480004F935F936F937F938F939F93AF93BF939C
:10049000EF93FF93D8D0882319F08091640002C0B5
:1004A0008091630081BF809160009091610001960E
:1004B000843021E092072CF49093610080936000D7
:1004C00007C0109261001092600081E0809362008A
:1004D000FF91EF91BF91AF919F918F917F916F911C
:1004E0005F914F913F912F910F900FBE0F901F90F2
:1004F000189591B797FD08C0292F30E02054310995
:100500003595279590EC920F9093680087FD09C070
:10051000482F50E09A0120543109359527952054F1
:1005200001C0282F20936700921714F421E001C026
:100530002FEF2093660090936500909165002091C5
:100540006700921749F091BF00000000909165008C
:1005500020916600920FEFCF81BF089581B78093FD
:100560006B0081B787FD06C090E080549109959596
:10057000879580548F77982F9695980F90689093D1
:100580006A00109269000895CF93C82F811103C0AB
:1005900080916B0004C0813019F480916A00A9DF5A
:1005A000C0936900CF91089580916900089590E00B
:1005B000880F991F880F991FDC01A159BF4F13960F
:1005C0001C921E92129710927C0010927B00611177
:1005D00003C01D921C920895E1E0E60F40E0EC306C
:1005E00018F0EC504F5FFBCFF0E0EE0FFF1FEF5D18
:1005F000FB4F25913491FC01E159FF4F02C0369524
:1006000027954A95E2F731832083089580917B00F6
:1006100090917C0043E001968330910514F080E0D6
:1006200090E0415059F0FC01EE0FFF1FEE0FFF1F4D
:10063000E159FF4F20813181232B69F390937C0096
:1006400080937B00089520917B0030917C00220FE5
:10065000331F220F331FF901E159FF4F40815181B0
:1006600041155105C9F082819381809693838283DD
:100670004817590720F4841B950B93838283F90153
:10068000E159FF4F408151815695479581E0228184
:1006900033814217530708F080E008958FEF80936D
:1006A0007E0081E080937F0080E480937D00089548
:1006B000A7E0B0E0EDE5F3E001C2A8DF20916E0015
:1006C0002F5F20936E00332727FD309580917F00A8
:1006D00090E0281739070CF483C010926E008091C7
:1006E0007D008F5F80937D008034F0F020917E004C
:1006F0002F5FE22FF0E0EE0FFF1FE25EFF4F8591CC
:1007000094918F3F3FEF930719F020937E0004C030
:1007100010927E0080E090E010927D00865D9F4FF9
:1007200090936D0080936C00E0916C00F0916D00EF
:10073000CF01019690936D0080936C004491FC0171
:1007400080E090E040FF06C09F012F5F3F4F549133
:10075000F90101C050E04695DC01B695A795AA0FB6
:10076000BB1F21E030E02C0F3D1FA20FB31F80FF05
:1007700008C02D913C911197250F311D2D933C936D
:1007800003C01C9211965C93019688309105D1F6B6
:10079000F0936D00E0936C00CE0101967C01D12CAA
:1007A000F701019111917F01612F6695980186E013
:1007B000369527958A95E1F7922F97709F83662348
:1007C00029F06F3709F460E08D2DF1DE2F8127309D
:1007D00019F40F7100937F00D39433E0D312E0CF6C
:1007E0002796E7E087C182E08ABD83BF80EA89BDA2
:1007F00080E189BF81E080BF51DFB0DE81E0C4DEEF
:1008000081B781508093640081B7809363007894AE
:10081000809162008823E1F34BDF10926200F8CFF1
:100820006F927F929F92AF92BF92CF92DF92EF92A0
:10083000FF920F931F93CF93DF93CDB7DEB72C9723
:100840000FB6F894DEBF0FBECDBF8C017B013A011D
:10085000FC0117821682838181FF0FC1CE010196B0
:100860005C01F801D380F701D3FC2591D3FE2191DF
:100870007F01222309F4FDC0253249F4D3FC2591E0
:10088000D3FE21917F01253211F0912C19C0B801BE
:10089000822F90E04AD163013601E3CF222309F48D
:1008A000E8C0622F70E080E494E02C8733D12C857F
:1008B000892B49F0F701D3FC2591D3FE21917F01CB
:1008C00097FEECCF0CC0233221F4F92DF0619F2E5E
:1008D000F1CF2C3639F4292D2068922EEBCF22232C
:1008E00009F4C7C0622F70E089E394E02C8712D12D
:1008F0002C85892B41F06301F4E0CF0ED11CB801A7
:100900008FE390E012C0233641F0233781F0233586
:1009100011F5F92DF1609F2E0AC0630122E0C20E8D
:10092000D11CB801F30180819181FFD0B5CF630163
:1009300022E0C20ED11CF30160807180F30190FCB3
:10094000859190FE81913F01882309F4A5CFB801DC
:1009500090E0EBD0F3CF243611F0293639F563015E
:1009600097FE09C0F4E0CF0ED11CF30160817181C4
:10097000828193810AC0F2E0CF0ED11CF301608125
:100980007181882777FD8095982FF92DFF7E9F2E06
:1009900097FF09C090958095709561957F4F8F4F17
:1009A0009F4FF0649F2E2AE030E038C02037A1F03E
:1009B00040F42835D1F02F3609F05BC028E030E054
:1009C00019C0253719F0283751F053C0292D2F7E33
:1009D000922E2AE030E00EC0892D8061982E992D4C
:1009E0009462992E20E130E005C0E92DE4609E2E4E
:1009F00020E132E0630197FE09C0F4E0CF0ED11C84
:100A0000F301608171818281938108C0F2E0CF0E91
:100A1000D11CF3016081718180E090E0A501B7D025
:100A2000782E7A1896FE04C0B8018DE290E07DD051
:100A300094FE14C0FE01E70DF11D8081803371F03A
:100A4000B80180E390E071D092FE08C0292D207299
:100A5000822F90E0B801885A9F4F67D07A94F501B1
:100A6000E70DF11D8081B80190E05FD07110F6CFE5
:100A700013CFF8018681978102C08FEF9FEF2C96EC
:100A80000FB6F894DEBF0FBECDBFDF91CF911F919F
:100A90000F91FF90EF90DF90CF90BF90AF909F901D
:100AA0007F906F9008952F923F924F925F926F9236
:100AB0007F928F929F92AF92BF92CF92DF92EF92EE
:100AC000FF920F931F93CF93DF93CDB7DEB7CA1B6F
:100AD000DB0B0FB6F894DEBF0FBECDBF09942A889A
:100AE000398848885F846E847D848C849B84AA8442
:100AF000B984C884DF80EE80FD800C811B81AA81CF
:100B0000B981CE0FD11D0FB6F894DEBF0FBECDBF99
:100B1000ED010895FC010590061621F00020D9F79B
:100B2000C00108953197CF0108950F931F93CF937C
:100B3000DF93182F092FEB018B8181FD03C08FEF0D
:100B40009FEF20C082FF10C04E815F812C813D81CC
:100B5000421753077CF4E881F9819F012F5F3F4FD3
:100B600039832883108306C0E885F985812F09958C
:100B7000892B29F72E813F812F5F3F4F3F832E83A3
:100B8000812F902FDF91CF911F910F910895FA013E
:100B9000AA27283061F1203191F1E8946F936E7F9C
:100BA0006E5F7F4F8F4F9F4FAF4FB1E040D0B4E0AB
:100BB0003ED0670F781F891F9A1FA11D680F791FEC
:100BC0008A1F911DA11D6A0F711D811D911DA11DFF
:100BD00022D009F468943F91062E000C3019000CC5
:100BE000000C3019305D3193CEF6CF010895462FB9
:100BF0004770405D4193B3E00FD0C9F7F6CF462F61
:100C00004F70405D4A3318F0495D31FD40524193C9
:100C100002D0A9F7EACFB4E0A69597958795779586
:100C20006795BA95C9F700976105710508959B010D
:100C3000AC010A2E06945795479537952795BA9596
:100C4000C9F7620F731F841F951FA01D0895F894A4
:020C5000FFCFD4
:00000001FF
