:100000000EC028C027C026C025C024C023C022C0DF
:1000100021C020C01FC01EC01DC01CC01BC0112499
:100020001FBECFE5D2E0DEBFCDBF10E0A0E6B0E05E
:10003000E0E1F4E002C005900D92A236B107D9F7D5
:1000400020E0A2E6B0E001C01D92AD36B207E1F7B4
:10005000C3D0DCC1D5CF8F929F92AF92BF92CF9287
:10006000DF92EF92FF9280E68093660060916000DD
:1000700070916100882777FD8095982F20E43CE9F6
:1000800040E050E01FD149015A01C501B40160565A
:100090007444824F9F4F20E030E840E050E0F6D0BB
:1000A000309367002093680080EB8093690080E1C3
:1000B00080936A0010926B000CD066E086E690E0B8
:1000C000FF90EF90DF90CF90BF90AF909F908F9078
:1000D0002FC0C09AC29ABA9AB89A8FEF8FB98AE2A3
:1000E0008DB980EF8EB9089580916C0008958EB916
:1000F0008BE292E09A95F1F78DB9B29BFECF00C0EA
:1001000000008DB9769BF5CF82E08A95F1F78FB12B
:100110009FEF9FB9B89A0895C098C29AB29BFECF3C
:1001200000C00000C09A82E08A95F1F781E008954E
:100130000F931F93CF93DF93162F21E020936C0032
:10014000FC01208120FD03C023E020936C00C29AB3
:10015000B29BFECF00C00000C09800C00000C29853
:10016000C09AEC010FEF80916C008370F9F0C29897
:1001700088818FB980EFBBDFB8988EEFB8DF80FF42
:100180000FC090916C00892F817090FF05C086E0B0
:1001900080936C0080E01BC095E090936C0017C0CA
:1001A00080916C008E7F80936C000BC0B89880EFBC
:1001B0009EDF8883113011F40FB901C01FB88EEF94
:1001C00096DF115021961111CECFA6DF81E0DF918D
:1001D000CF911F910F910895BB98BC98C1E0D0E0DA
:1001E000C3990AC08091620090916300892B21F429
:1001F000D0936300C0936200C39918C080916200DD
:1002000090916300019791F4109263001092620044
:1002100080916000909161008F3222E2920734F069
:100220000A97909361008093600015DFC4990AC01B
:100230008091640090916500892B21F4D093650032
:10024000C0936400C49918C08091640090916500C7
:10025000019791F410926500109264008091600003
:100260009091610080332AE2920734F40A969093C9
:10027000610080936000EFDE8FE79AE126E0815015
:1002800090402040E1F700C00000AACF052E97FB68
:1002900016F400940FD057FD05D068D007FC02D0AB
:1002A00046F408C050954095309521953F4F4F4FEB
:1002B0005F4F089590958095709561957F4F8F4F12
:1002C0009F4F089568940013E894A0E0B0E0EAE638
:1002D000F1E01DC0EFEFE7F959016A015E23550F08
:1002E000EE08FE2C87019B01AC019E23990F660B43
:1002F000762FCB015DD0CDB7DEB7EAE024C02F92D8
:100300003F924F925F926F927F928F929F92AF92A5
:10031000BF92CF92DF92EF92FF920F931F93CF93F2
:10032000DF93CDB7DEB7CA1BDB0B0FB6F894DEBF89
:100330000FBECDBF09942A88398848885F846E84AF
:100340007D848C849B84AA84B984C884DF80EE80F9
:10035000FD800C811B81AA81B981CE0FD11D0FB602
:10036000F894DEBF0FBECDBFED010895A1E21A2EB5
:10037000AA1BBB1BFD010DC0AA1FBB1FEE1FFF1F49
:10038000A217B307E407F50720F0A21BB30BE40B99
:10039000F50B661F771F881F991F1A9469F76095E0
:1003A0007095809590959B01AC01BD01CF0108959A
:1003B000DF93CF939F92A0E49A2E0024D001E00116
:1003C000F00116950795F794E794D794C794B794DE
:1003D000A79448F41068A20FB31FC41FD51FE61FCF
:1003E000F71F081E191E220F331F441F551F661FBB
:1003F000771F881F991F9A9421F79D01AE01BF01B5
:10040000C00111249F90CF91DF910895F894FFCF00
:02041000BA220E
:00000001FF
