:1000000009C019C018C017C016C015C014C013C04D
:1000100012C011C011241FBECFE9CDBF10E0A0E671
:10002000B0E0ECE5F3E002C005900D92A236B10716
:10003000D9F7A4D091C1E4CF8F929F92AF92BF9293
:10004000CF92DF92EF92FF92E0906000F09061001B
:1000500036D080E639D0811121C080E055D0B7017B
:10006000882777FD8095982F20E43CE940E050E018
:10007000D9D049015A01C501B40160567444824F78
:100080009F4F20E030E840E050E0B0D0822F3CD0DD
:1000900080EB3AD080E138D080E036D0FF90EF900E
:1000A000DF90CF90BF90AF909F908F9025C000C001
:1000B00000C000C000C000C000C000000895BC988F
:1000C000BD98C498C5980895BC9AF1DF1DD00895D5
:1000D000BD9AEDDFBC98EBDFBD98E9DFBC9AE7DFA6
:1000E00013D00895082EBC9AE2DF802D0DD088230E
:1000F00011F002D0F8CF0895BD9ABC9AD8DFBD9810
:10010000D6DFBC98D4DF08950894881F01C0880FFB
:1001100059F0BD9A18F40000BC9802C0BC9A00C007
:10012000C6DFBD98C4DFF3CFBD9ABC98C0DFBD98D1
:10013000B59BFECF8827B49981E0B9DF9927089550
:10014000882701C081E071E0BD9ABC98B0DFBD98FE
:10015000AEDFB59BFECF8894B4990894771FA0F7C3
:10016000BD9A813011F0BC9801C0BC9AA0DFBD9847
:10017000B59BFECF9CDF872F99270895B998BA9831
:10018000C0E3DAE20EE212E2C19B11C0809160008E
:1001900090916100059790936100809360008E328A
:1001A00092422CF4D0936100C093600045DFC29B63
:1001B00011C080916000909161000596909361005C
:1001C0008093600081339A422CF010936100009379
:1001D000600032DF80916000909161002DDF83E24A
:1001E00094EF0197F1F700C00000CECF052E97FBEA
:1001F00016F400940FD057FD05D05ED007FC02D056
:1002000046F408C050954095309521953F4F4F4F8B
:100210005F4F089590958095709561957F4F8F4FB2
:100220009F4F089568940013E894A0E0B0E0EAE1DD
:10023000F1E01DC0EFEFE7F959016A015E23550FA8
:10024000EE08FE2C87019B01AC019E23990F660BE3
:10025000762FCB0153D0CDB7DD27EAE01FC02F9218
:100260003F924F925F926F927F928F929F92AF9246
:10027000BF92CF92DF92EF92FF920F931F93CF9393
:10028000DF93CDB7CA1BCDBFDD2709942A883988F3
:1002900048885F846E847D848C849B84AA84B9841E
:1002A000C884DF80EE80FD800C811B81AA81D9810A
:1002B000CE0FCDBFCA2F0895A1E21A2EAA1BBB1BD9
:1002C000FD010DC0AA1FBB1FEE1FFF1FA217B30722
:1002D000E407F50720F0A21BB30BE40BF50B661F38
:1002E000771F881F991F1A9469F7609570958095FC
:1002F00090959B01AC01BD01CF010895DF93CF9391
:100300009F92A0E49A2E0024D001E001F0011695FE
:100310000795F794E794D794C794B794A79448F4B3
:100320001068A20FB31FC41FD51FE61FF71F081EBA
:10033000191E220F331F441F551F661F771F881F6A
:10034000991F9A9421F79D01AE01BF01C0011124AC
:0C0350009F90CF91DF910895F894FFCFAB
:02035C00BA22C3
:00000001FF
