:1000000055C0000070C000006EC000006CC0000051
:100010006AC0000068C0000066C0000064C0000044
:1000200062C000000C94BE0B5EC000005CC000000B
:100030002CC2000053C200007AC20000A1C200001E
:10004000C8C20000EFC2000016C300003DC300009C
:1000500064C300008BC3000046C0000044C0000021
:1000600042C0000040C000003EC000003CC0000094
:100070003AC0000038C000000C94A90B34C0000046
:1000800032C0000030C000002EC000002CC00000B4
:1000900096C30000BDC30000E4C300000BC4000011
:1000A00022C0000020C000001EC0000011241FBE9E
:1000B000CFEFCDBFDFE2DEBF10E2A0E0B0E2E0EFC5
:1000C000F7E102C005900D92AE30B107D9F720E2FA
:1000D000AEE0B0E201C01D92AF36B207E1F70E9478
:1000E0006E0B0C94F60B8CCF009709F45DC0811554
:1000F00024E0920711F464E055C0803821E09207B3
:1001000011F462E04FC0811521E0920711F461E023
:1001100049C0803823E0920711F461E00BC08115DB
:1001200022E0920711F462E005C0811523E09207F6
:1001300019F464E081E037C0811528E0920711F4DA
:1001400061E02AC0803428E0920711F462E024C004
:10015000803429E0920711F462E017C0803B28E068
:10016000920711F464E018C0803E28E0920711F471
:1001700068E012C0803C28E0920711F460E10CC0F6
:10018000803C29E0920719F460E184E00CC08038DB
:1001900024E0920719F460E483E005C080369440BF
:1001A00019F460E880E065C10895FC01218125FF14
:1001B000FCCF608380E090E008958F929F92AF9291
:1001C000BF92CF92DF92EF92FF920F931F93CF9344
:1001D000DF93EC016A017B0148015901B901A801D3
:1001E000A3E07695679557954795AA95D1F7D901DC
:1001F000C80116E1B695A795979587951A95D1F7F9
:100200002B8122FD08C07695679557954795B69541
:10021000A795979587954C155D056E057F0508F4A4
:100220009AC0C816D906EA06FB0608F494C08B816A
:1002300082FD04C0CC0CDD1CEE1CFF1CC501B4010A
:10024000A70196010E94D40B8FEF90E0A0E0B0E0F0
:1002500019EF281739074A075B0758F0880F991FCD
:10026000AA1FBB1F1D3F0CF481601F5F173089F769
:100270004CC017FF4AC0D701C60103E0880F991F81
:10028000AA1FBB1F0A95D1F7881A990AAA0ABB0AA6
:10029000812F992787FD90951E3FE4F46DEF7FEF46
:1002A000681B790BA501940104C0220F331F441F62
:1002B000551F6A95D2F7CA01B90146015701B69494
:1002C000A79497948794680D791D8A1D9B1DA7019B
:1002D000960118C09C012D5F3F4FD701C60104C095
:1002E000880F991FAA1FBB1F2A95D2F79C01AD0149
:1002F000BC01CD019695879577956795680D791D19
:100300008A1D9B1D0E94D40B1DC023E0210FD70125
:10031000C60104C0880F991FAA1FBB1F2A95D2F7D8
:100320009C01AD01BC01CD019695879577956795A8
:10033000680D791D8A1D9B1D0E94D40B2150310927
:1003400041095109832F8F701295107F812B8F8364
:100350002E8381E001C080E0DF91CF911F910F914A
:10036000FF90EF90DF90CF90BF90AF909F908F90D5
:1003700008950F931F93CF93DF93EC018B01B4DEAD
:100380008C818F738C83F80184819581892B968170
:10039000992311F098E001C090E0892B8C83F8013B
:1003A000408151816281738100E814E82EE130E0E0
:1003B000CE0103DF9B8198609B839B8190619B832F
:1003C000DF91CF911F910F9108958091820080FD60
:1003D000FCCF0895609180006270616024E0829F8C
:1003E000C00111248C73682B80E890E0CDD2EDCF52
:1003F000609180006C7F616080E890E0C5C2609190
:1004000080006C73636080E890E0BED2DECFFC01B8
:1004100080E090E0262F30E0D901082E02C0B5958B
:10042000A7950A94E2F7A0FF05C0DF01A80FB91F46
:1004300050965C9301968830910571F740FF07C094
:1004400041FF02C0658301C06683618308956283B2
:1004500008958FEF809370008093710080937200F5
:10046000809373008093740080937500809376006E
:1004700008959FB7F894E82FF0E0E059FF4F60959A
:100480008081862380839FBF08951F920F920FB6AD
:100490000F9211242F933F934F935F936F937F930A
:1004A0008F939F93AF93BF93EF93FF93E091282097
:1004B000F0912920309709F00995FF91EF91BF91B4
:1004C000AF919F918F917F916F915F914F913F91EC
:1004D0002F910F900FBE0F901F9018951F920F92A3
:1004E0000FB60F9211242F933F934F935F936F9307
:1004F0007F938F939F93AF93BF93EF93FF93E0917D
:100500002620F0912720309709F00995FF91EF916F
:10051000BF91AF919F918F917F916F915F914F911B
:100520003F912F910F900FBE0F901F9018951F9223
:100530000F920FB60F9211242F933F934F935F9317
:100540006F937F938F939F93AF93BF93EF93FF939B
:10055000E0912420F0912520309709F00995FF9132
:10056000EF91BF91AF919F918F917F916F915F912B
:100570004F913F912F910F900FBE0F901F901895A4
:100580001F920F920FB60F9211242F933F934F9308
:100590005F936F937F938F939F93AF93BF93EF93EB
:1005A000FF93E0912220F0912320309709F00995E4
:1005B000FF91EF91BF91AF919F918F917F916F913B
:1005C0005F914F913F912F910F900FBE0F901F9011
:1005D00018951F920F920FB60F9211242F933F93ED
:1005E0004F935F936F937F938F939F93AF93BF933B
:1005F000EF93FF93E0912020F0912120309709F0B4
:100600000995FF91EF91BF91AF919F918F917F914C
:100610006F915F914F913F912F910F900FBE0F906F
:100620001F9018951F920F920FB60F9211242F93BF
:100630003F934F935F936F937F938F939F93AF936A
:10064000BF93EF93FF93E0911E20F0911F2030970E
:1006500009F00995FF91EF91BF91AF919F918F9113
:100660007F916F915F914F913F912F910F900FBEAE
:100670000F901F9018951F920F920FB60F92112492
:100680002F933F934F935F936F937F938F939F939A
:10069000AF93BF93EF93FF93E0911C20F0911D2047
:1006A000309709F00995FF91EF91BF91AF919F911C
:1006B0008F917F916F915F914F913F912F910F900B
:1006C0000FBE0F901F9018951F920F920FB60F92AA
:1006D00011242F933F934F935F936F937F938F9347
:1006E0009F93AF93BF93EF93FF93E0911A20F09104
:1006F0001B20309709F00995FF91EF91BF91AF91C1
:100700009F918F917F916F915F914F913F912F9129
:100710000F900FBE0F901F9018951F920F920FB65B
:100720000F9211242F933F934F935F936F937F9377
:100730008F939F93AF93BF93EF93FF93E091182014
:10074000F0911920309709F00995FF91EF91BF9131
:10075000AF919F918F917F916F915F914F913F9159
:100760002F910F900FBE0F901F9018951F920F9210
:100770000FB60F9211242F933F934F935F936F9374
:100780007F938F939F93AF93BF93EF93FF93E091EA
:100790001620F0911720309709F00995FF91EF91FD
:1007A000BF91AF919F918F917F916F915F914F9189
:1007B0003F912F910F900FBE0F901F9018951F9291
:1007C0000F920FB60F9211242F933F934F935F9385
:1007D0006F937F938F939F93AF93BF93EF93FF9309
:1007E000E0911420F0911520309709F00995FF91C0
:1007F000EF91BF91AF919F918F917F916F915F9199
:100800004F913F912F910F900FBE0F901F90189511
:100810001F920F920FB60F9211242F933F934F9375
:100820005F936F937F938F939F93AF93BF93EF9358
:10083000FF93E0911220F0911320309709F0099571
:10084000FF91EF91BF91AF919F918F917F916F91A8
:100850005F914F913F912F910F900FBE0F901F907E
:1008600018951F920F920FB60F9211242F933F935A
:100870004F935F936F937F938F939F93AF93BF93A8
:10088000EF93FF93E0911020F0911120309709F041
:100890000995FF91EF91BF91AF919F918F917F91BA
:1008A0006F915F914F913F912F910F900FBE0F90DD
:1008B0001F9018951F920F920FB60F9211242F932D
:1008C0003F934F935F936F937F938F939F93AF93D8
:1008D000BF93EF93FF93E0910E20F0910F2030979C
:1008E00009F00995FF91EF91BF91AF919F918F9181
:1008F0007F916F915F914F913F912F910F900FBE1C
:100900000F901F901895CF93CFB7F894811528E0DA
:10091000920711F461E005C0803428E0920731F4B9
:1009200062E083E0A6DD64E083E008C080349940A3
:1009300071F462E084E09DDD64E084E09ADD9FB7BD
:10094000F894809155208F5F809355209FBFCFBF33
:10095000CF910895811528E0920729F4609328200B
:10096000709329200895803428E0920729F4609339
:100970001C2070931D2008958034994021F46093C9
:1009800014207093152008951BBEFC0128ED24BF90
:10099000608308952DDDE8E4F0E08081817F84604C
:1009A0008083808181608083889580818E7F808331
:1009B00026DD10922E2010922F20089580915C2029
:1009C0008F5F80935C208091080681FD11C080912B
:1009D0005120909152200196809351209093522063
:1009E00010923220109230201092312020E00BC063
:1009F0008091512090915220892B21F0109251200A
:100A00001092522021E08091080680FD11C0809153
:100A10004F2090915020019680934F20909350202A
:100A200010923220109230201092312020E00AC023
:100A300080914F2090915020892B21F010924F20CF
:100A4000109250208091080683FD11C080914D20A6
:100A500090914E20019680934D2090934E201092BD
:100A60003220109230201092312020E00AC0809174
:100A70004D2090914E20892B21F010924D20109204
:100A80004E208091080685FD11C080914B209091E9
:100A90004C20019680934B2090934C201092322052
:100AA000109230201092312020E00AC080914B201B
:100AB00090914C20892B21F010924B2010924C20C9
:100AC0008091680680FD11C08091492090914A2054
:100AD00001968093492090934A20109232201092E0
:100AE00030201092312020E00AC08091492090915E
:100AF0004A20892B21F01092492010924A2080919F
:100B0000480680FD11C080914720909148200196B1
:100B100080934720909348201092322010923020EA
:100B20001092312020E00AC0809147209091482007
:100B3000892B21F01092472010924820809168065E
:100B400085FD11C0809145209091462001968093AB
:100B5000452090934620109232201092302010921F
:100B6000312020E00AC08091452090914620892BB9
:100B700021F010924520109246208091480681FD78
:100B800006C0809143209091442001960BC0809133
:100B9000432090914420892B49F0809143209091EB
:100BA00044200197809343209093442080916806CD
:100BB00086FD06C0809141209091422001960BC095
:100BC0008091412090914220892B49F080914120D1
:100BD00090914220019780934120909342208091F0
:100BE000080686FD06C080913F2090914020019626
:100BF0000BC080913F2090914020892B49F080913B
:100C00003F2090914020019780933F209093402077
:100C10008091080684FD06C080913D2090913E2081
:100C200001960BC080913D2090913E20892B49F088
:100C300080913D2090913E20019780933D2090939C
:100C40003E208091680681FD06C080913B209091F6
:100C50003C2001960BC080913B2090913C20892B39
:100C600049F080913B2090913C20019780933B205C
:100C700090933C208091080682FF0CC08091372021
:100C800090913820A0913920B0913A200196A11D71
:100C9000B11D17C08091372090913820A091392044
:100CA000B0913A20892B8A2B8B2B99F08091372099
:100CB00090913820A0913920B0913A200197A10954
:100CC000B1098093372090933820A0933920B093B6
:100CD0003A208091480682FF0CC080913320909189
:100CE0003420A0913520B09136200196A11DB11D70
:100CF00017C08091332090913420A0913520B0917D
:100D00003620892B8A2B8B2B99F080913320909160
:100D10003420A0913520B09136200197A109B10966
:100D20008093332090933420A0933520B0933620C5
:100D3000222351F080912E2090912F2001968093B4
:100D40002E2090932F20089510922E2010922F2065
:100D5000089534DE809169208F5F809369208091AF
:100D60005C208F5F80935C208091302090913120B7
:100D70000196809330209093312080913020909183
:100D80003120813D974068F0109230201092312040
:100D900080912E2090912F20019680932E20909369
:100DA0002F2080910C08816080930C080895DC014D
:100DB000FB012D913C91119780910C2090E08217BE
:100DC000930770F42D913C91119780910B2090E046
:100DD0002817390728F48081811102C081E08083BF
:100DE0002D913C91119780910A2090E082179307F2
:100DF000A8F48081853019F08081843079F4809165
:100E0000092090E08D939C93119780910920833461
:100E100018F48E5F8093092083E080838081843082
:100E200019F08081853069F42D913C9180910820E2
:100E300090E08217930728F082E0808380E380931C
:100E400009208081823039F08081813021F08081D9
:100E5000833009F045C080916A20840F80936A2016
:100E60008081813039F484E0808380916A208F5FB3
:100E700080936A208081833039F485E0808380917B
:100E80006A208D5F80936A208081823031F41082E5
:100E900080916A208E5F80936A2080916A208823E7
:100EA000F9F08091532081111BC0F89465EA80EC21
:100EB00099E07BD960915C2080EC99E076D96091D3
:100EC0006A2080EC99E071D960915C2080916A2061
:100ED000680F6B5580EC99E068D9789410926A207D
:100EE0000895CF92DF92EF92FF920F931F93DC0150
:100EF000FB01CD90DD90ED90FC90139700910C20BC
:100F000010E020E030E00C151D052E053F05A0F493
:100F1000CD90DD90ED90FC90139700910B2010E0A8
:100F200020E030E0C016D106E206F30628F4808106
:100F3000811102C081E080838081843081F40D9131
:100F40001D912D913C918091082090E0A0E0B0E0AF
:100F500080179107A207B30710F082E08083808199
:100F6000823019F080818130C1F480916A20840F31
:100F700080936A208081813011F484E080838081B5
:100F8000823059F4108280915320811104C081E095
:100F90008093532002C0109253201F910F91FF9015
:100FA000EF90DF90CF90089540E56DE570E281E528
:100FB00090E2FDDE40E66AE570E28FE490E2F7DE63
:100FC00040E76CE670E28DE490E2F1DE40E865E631
:100FD00070E28BE490E2EBDE40E96BE670E289E4DC
:100FE00090E2E5DE40EA6DE670E287E490E2DFDE63
:100FF00040EB67E670E285E490E2D9DE42E066E627
:1010000070E287E390E26DCF9091322080910720CB
:1010100091114AC04091432050914420282F30E044
:101020002417350758F491E09093322040913020F6
:101030005091312040932C2050932D2040914120FD
:10104000509142202417350758F492E090933220B3
:10105000409130205091312040932C2050932D20EE
:1010600040913F20509140202417350758F493E0D9
:1010700090933220409130205091312040932C2089
:1010800050932D2040913D2050913E20241735074C
:1010900058F494E090933220209130203091312008
:1010A00020932C2030932D2090913220913049F4C0
:1010B0004091432050914420282F30E024173507D9
:1010C00038F190913220923049F440914120509172
:1010D0004220282F30E024173507D0F0909132209D
:1010E000933049F440913F2050914020282F30E028
:1010F0002417350768F090913220943089F440919C
:101100003D2050913E20282F30E02417350740F431
:10111000209130203091312020932C2030932D20AD
:1011200020913B2030913C2090E08217930738F4C7
:1011300020913220213019F425E020933220209193
:101140003B2030913C208217930738F420913220C5
:10115000223019F426E02093322020913B20309158
:101160003C208217930738F420913220233019F461
:1011700027E02093322020913B2030913C208217A1
:10118000930738F420913220243019F428E020937A
:10119000322020913220222369F1209132202930FF
:1011A00048F5209130203091312040912C205091F1
:1011B0002D20241B350B25363105E0F010926E20D2
:1011C000109232201092432010924420109241201D
:1011D0001092422010923F201092402010923D2009
:1011E00010923E2010923B2010923C201092302012
:1011F0001092312020913220253009F06DC02091CD
:101200003F20309140208217930708F065C08091FD
:1012100030209091312020912C2030912D20821B64
:10122000930B80932A2090932B2080912A209091D9
:101230002B204E9720F480916E208E5F03C080910A
:101240006E208F5F80936E2080916E20805D8093F2
:101250006E20809130209091312080936920809180
:101260005320811139C0F89465EA80EC99E00E941E
:10127000D5006091692080EC99E00E94D5006091D2
:101280006E2080EC99E00E94D500609169208091E9
:101290006E20680F6B5580EC99E00E94D50010928B
:1012A0006E2010923220109243201092442010920F
:1012B00041201092422010923F2010924020109224
:1012C0003D2010923E2010923B2010923C20109224
:1012D0002E2010922F20789480913220863009F0B1
:1012E00070C020913D2030913E208091072090E0F9
:1012F0008217930708F065C08091302090913120CB
:1013000020912C2030912D20821B930B80932A203A
:1013100090932B2080912A2090912B204E9720F49F
:1013200080916E208E5F03C080916E208F5F8093CE
:101330006E2080916E20805F80936E20809130209F
:10134000909131208093692080915320811139C080
:10135000F89465EA80EC99E00E94D50060916920DC
:1013600080EC99E00E94D50060916E2080EC99E0BD
:101370000E94D5006091692080916E20680F6B55A6
:1013800080EC99E00E94D50010926E2010923220DD
:10139000109243201092442010924120109242203B
:1013A00010923F201092402010923D2010923E203B
:1013B00010923B2010923C2010922E2010922F2051
:1013C000789480913220873009F070C020914320BA
:1013D000309144208091072090E08217930708F015
:1013E00065C0809130209091312020912C20309147
:1013F0002D20821B930B80932A2090932B20809189
:101400002A2090912B204E9720F480916E208E5FA1
:1014100003C080916E208F5F80936E2080916E203C
:10142000805C80936E208091302090913120809359
:10143000692080915320811139C0F89465EA80ECCD
:1014400099E00E94D5006091692080EC99E00E94AB
:10145000D50060916E2080EC99E00E94D5006091EB
:10146000692080916E20680F6B5580EC99E00E9496
:10147000D50010926E2010923220109243201092CC
:101480004420109241201092422010923F2010924E
:10149000402010923D2010923E2010923B2010924E
:1014A0003C2010922E2010922F2078948091322090
:1014B000883009F070C02091412030914220809105
:1014C000072090E08217930708F065C080913020D4
:1014D0009091312020912C2030912D20821B930B54
:1014E00080932A2090932B2080912A2090912B206A
:1014F0004E9720F480916E208E5F03C080916E2005
:101500008F5F80936E2080916E20805E80936E202E
:1015100080913020909131208093692080915320D8
:10152000811139C0F89465EA80EC99E00E94D500F9
:101530006091692080EC99E00E94D50060916E2056
:1015400080EC99E00E94D5006091692080916E2026
:10155000680F6B5580EC99E00E94D5001092322004
:1015600010926E201092432010924420109241203D
:101570001092422010923F201092402010923D2065
:1015800010923E2010923B2010923C2010922E2070
:1015900010922F2078940895E0E0F6E084E08287AE
:1015A00093E091878283E0E4F6E0828791878283EB
:1015B000E0EAF0E082837894E2ECF9E080818F7CCD
:1015C000808380638083E0EAF0E087E08283828129
:1015D0008068828378940895CF93DF931092672078
:1015E00010926D2010926B201092652010926C204A
:1015F00010925A2010925D2010923220E0E0F6E026
:1016000092E0928381E0828328E0228320E2228399
:10161000C0E6D6E08A83A0E4B6E012968C931297D7
:101620002A8380E1828380E4828312969C931297BE
:101630008A8384E0828312968C9340E056E064E0D3
:1016400080E096E00E94070240E056E064E080E01F
:1016500096E00E94070243E050E068E080E696E0F2
:101660000E94070240E056E064E080E696E00E94B7
:1016700007020E94290260E070E280EC99E00E947B
:10168000B90180E098E03FD969EA76E080E098E02F
:1016900061D9E0E0F8E08181887F81838AE090E091
:1016A00086A397A386818C7F8683868181608683CB
:1016B00087E0E0EAF0E082837894E0E0F8E080817F
:1016C000807F8760808385E00E94EA010E94FF019D
:1016D00063DF10925320DF91CF9108957DDFC1E049
:1016E0008091372090913820A0913920B0913A20F4
:1016F0008C329240A105B105C8F00E94F801F8941F
:1017000065EA80EC99E00E94D50064E080EC99E005
:101710000E94D50064E080EC99E00E94D5006DEA5B
:1017200080EC99E00E94D5007894FFCFA8953CDC2E
:10173000A8956ADCA89580912E2090912F208C3559
:101740009B4228F0C093532025D910925320A8958E
:10175000C7CF1F920F920FB60F9211248F93EF9362
:10176000FF93E0E0F6E0848584608487FF91EF9149
:101770008F910F900FBE0F901F9018951F920F9290
:101780000FB60F9211248F938091532081111092E4
:10179000532080914C06846080934C068F910F906B
:1017A0000FBE0F901F901895A1E21A2EAA1BBB1B0B
:1017B000FD010DC0AA1FBB1FEE1FFF1FA217B3071D
:1017C000E407F50720F0A21BB30BE40BF50B661F33
:1017D000771F881F991F1A9469F7609570958095F7
:1017E00090959B01AC01BD01CF010895F894FFCF06
:0E17F00000E10000030000030530551905005C
:00000001FF
