S0120000687569736C7564626C642E73726563E2
S113000055C0000070C000006EC000006CC000004D
S11300106AC0000068C0000066C0000064C0000040
S113002062C000000C946A0C5EC000005CC000005A
S11300307EC20000A5C20000CCC20000F3C20000D2
S11300401AC3000041C3000068C300008FC300004E
S1130050B6C30000DDC3000046C0000044C0000079
S113006042C0000040C000003EC000003CC0000090
S11300703AC0000038C000000C94550C34C0000095
S113008032C0000030C000002EC000002CC00000B0
S1130090E8C300000FC4000036C400005DC40000C3
S11300A022C0000020C000001EC0000011241FBE9A
S11300B0CFEFCDBFDFE2DEBF10E2A0E0B0E2E0E5CB
S11300C0F9E102C005900D92AE30B107D9F720E2F4
S11300D0AEE0B0E201C01D92AF36B207E1F70E9474
S11300E00D0C0C94A60C8CCFFC01818185FFFDCFF7
S11300F0608380E090E008954F925F926F927F92C8
S11301008F929F92AF92BF92CF92DF92EF92FF9223
S11301100F931F93CF93DF93EC014A015B012801F6
S11301203901D901C801689412F8B695A795979535
S113013087951694D1F7B901A801032E36E1769577
S11301406795579547953A95D1F7302D2B8122FD28
S113015008C0B695A7959795879576956795579511
S1130160479588159905AA05BB0508F4A6C0841609
S11301709506A606B70608F4A2C08B8182FD04C0CA
S1130180880C991CAA1CBB1CC301B201A5019401D3
S11301900E94840C2F3F31054105510508F491C09C
S11301A0C12CD12C7601CA9419EF05C02C153D053C
S11301B04E055F0568F0CC0CDD1CEE1CFF1C1D3FDA
S11301C014F46894C0F81F5F173081F7212F50C0D2
S11301D0212F11230CF04CC0D501C401880F991FA5
S11301E0AA1FBB1F880F991FAA1FBB1F880F991F27
S11301F0AA1FBB1F481A590A6A0A7B0A1E3FF4F455
S11302006DEF7FEF611B710917FD739504C0440CFA
S1130210551C661C771C6A95D2F7D501C401B695A6
S1130220A79597958795BC01CD01640D751D861D15
S1130230971DA50194010E94840C36C023E0210F70
S1130240D501C40104C0880F991FAA1FBB1F2A959A
S1130250D2F79C01AD01B695A79597958795BC01FA
S1130260CD01640D751D861D971D0E94840C1CC054
S11302702D5FD501C40104C0880F991FAA1FBB1F9D
S11302802A95D2F79C01AD01B695A79597958795C8
S1130290BC01CD01640D751D861D971D0E94840C43
S11302A02150310941095109832F8F701295107F14
S11302B0182B1F832E8381E018C080E016C080E0D5
S11302C014C0D501C401880F991FAA1FBB1F880F32
S11302D0991FAA1FBB1F880F991FAA1FBB1F481A6B
S11302E0590A6A0A7B0A19EF8BCFDF91CF911F91CC
S11302F00F91FF90EF90DF90CF90BF90AF909F90C1
S11303008F907F906F905F904F9008950F931F93FD
S1130310CF93DF93EC018B01009709F477C0C115EB
S113032084E0D80721F464E080E0F5D06FC0C038E1
S1130330E1E0DE0721F462E080E0EDD067C0C115A2
S1130340F1E0DF0721F461E080E0E5D05FC0C03870
S113035083E0D80721F461E081E0DDD057C0C11506
S1130360E2E0DE0721F462E081E0D5D04FC0C115A0
S1130370F3E0DF0721F464E081E0CDD047C0C1158C
S113038088E0D80721F461E083E0C5D03FC0C034E1
S1130390E8E0DE0721F462E083E0BDD037C0C0347A
S11303A0F9E0DF0721F462E084E0B5D02FC0C03B60
S11303B088E0D80721F464E083E0ADD027C0C03ED4
S11303C0E8E0DE0721F468E083E0A5D01FC0C03C6C
S11303D0F8E0DF0721F460E183E09DD017C0C03C62
S11303E089E0D80721F460E184E095D00FC0C038DB
S11303F0E4E0DE0721F460E483E08DD007C0C0367A
S1130400F4E0DF0719F460E880E085D08C818F7315
S11304108C83F80194818581892B9681992311F02D
S113042098E001C090E0892B8C83F80140815181D0
S11304306281738100E814E82EE130E0CE015CDED5
S11304409B8198609B839B8190619B83DF91CF917B
S11304501F910F910895609180006270616024E0A3
S1130460829FC00111248C73682B80E890E0E9D24C
S1130470E0E8F0E0828180FDFDCF08956091800086
S11304806C7F616080E890E0DCC208956091800038
S11304906C73636080E890E0D4D2E0E8F0E082819D
S11304A080FDFDCF0895CF93DF93FC01709620E08B
S11304B030E0C62FD0E0DE01022E02C0B595A7952C
S11304C00A94E2F7A0FD50832F5F3F4F3196283006
S11304D0310589F740FF0AC041FF03C0FC01658371
S11304E002C0FC016683FC01618302C0FC016283DB
S11304F0DF91CF9108958FEF809370008093710006
S113050080937200809373008093740080937500CD
S11305108093760008959FB7F894E82FF0E0E059AF
S1130520FF4F60958081682360839FBF08951F9269
S11305300F920FB60F9211242F933F934F935F9313
S11305406F937F938F939F93AF93BF93EF93FF9397
S1130550E0912820F0912920309709F00995FF9126
S1130560EF91BF91AF919F918F917F916F915F9127
S11305704F913F912F910F900FBE0F901F901895A0
S11305801F920F920FB60F9211242F933F934F9304
S11305905F936F937F938F939F93AF93BF93EF93E7
S11305A0FF93E0912620F0912720309709F00995D8
S11305B0FF91EF91BF91AF919F918F917F916F9137
S11305C05F914F913F912F910F900FBE0F901F900D
S11305D018951F920F920FB60F9211242F933F93E9
S11305E04F935F936F937F938F939F93AF93BF9337
S11305F0EF93FF93E0912420F0912520309709F0A8
S11306000995FF91EF91BF91AF919F918F917F9148
S11306106F915F914F913F912F910F900FBE0F906B
S11306201F9018951F920F920FB60F9211242F93BB
S11306303F934F935F936F937F938F939F93AF9366
S1130640BF93EF93FF93E0912220F0912320309702
S113065009F00995FF91EF91BF91AF919F918F910F
S11306607F916F915F914F913F912F910F900FBEAA
S11306700F901F9018951F920F920FB60F9211248E
S11306802F933F934F935F936F937F938F939F9396
S1130690AF93BF93EF93FF93E0912020F09121203B
S11306A0309709F00995FF91EF91BF91AF919F9118
S11306B08F917F916F915F914F913F912F910F9007
S11306C00FBE0F901F9018951F920F920FB60F92A6
S11306D011242F933F934F935F936F937F938F9343
S11306E09F93AF93BF93EF93FF93E0911E20F091FC
S11306F01F20309709F00995FF91EF91BF91AF91B9
S11307009F918F917F916F915F914F913F912F9125
S11307100F900FBE0F901F9018951F920F920FB657
S11307200F9211242F933F934F935F936F937F9373
S11307308F939F93AF93BF93EF93FF93E0911C200C
S1130740F0911D20309709F00995FF91EF91BF9129
S1130750AF919F918F917F916F915F914F913F9155
S11307602F910F900FBE0F901F9018951F920F920C
S11307700FB60F9211242F933F934F935F936F9370
S11307807F938F939F93AF93BF93EF93FF93E091E6
S11307901A20F0911B20309709F00995FF91EF91F1
S11307A0BF91AF919F918F917F916F915F914F9185
S11307B03F912F910F900FBE0F901F9018951F928D
S11307C00F920FB60F9211242F933F934F935F9381
S11307D06F937F938F939F93AF93BF93EF93FF9305
S11307E0E0911820F0911920309709F00995FF91B4
S11307F0EF91BF91AF919F918F917F916F915F9195
S11308004F913F912F910F900FBE0F901F9018950D
S11308101F920F920FB60F9211242F933F934F9371
S11308205F936F937F938F939F93AF93BF93EF9354
S1130830FF93E0911620F0911720309709F0099565
S1130840FF91EF91BF91AF919F918F917F916F91A4
S11308505F914F913F912F910F900FBE0F901F907A
S113086018951F920F920FB60F9211242F933F9356
S11308704F935F936F937F938F939F93AF93BF93A4
S1130880EF93FF93E0911420F0911520309709F035
S11308900995FF91EF91BF91AF919F918F917F91B6
S11308A06F915F914F913F912F910F900FBE0F90D9
S11308B01F9018951F920F920FB60F9211242F9329
S11308C03F934F935F936F937F938F939F93AF93D4
S11308D0BF93EF93FF93E0911220F0911320309790
S11308E009F00995FF91EF91BF91AF919F918F917D
S11308F07F916F915F914F913F912F910F900FBE18
S11309000F901F9018951F920F920FB60F921124FB
S11309102F933F934F935F936F937F938F939F9303
S1130920AF93BF93EF93FF93E0911020F0911120C8
S1130930309709F00995FF91EF91BF91AF919F9185
S11309408F917F916F915F914F913F912F910F9074
S11309500FBE0F901F9018951F920F920FB60F9213
S113096011242F933F934F935F936F937F938F93B0
S11309709F93AF93BF93EF93FF93E0910E20F09179
S11309800F20309709F00995FF91EF91BF91AF9136
S11309909F918F917F916F915F914F913F912F9193
S11309A00F900FBE0F901F901895CF93CFB7F89468
S11309B0282F392F211588E0380739F461E083E0C6
S11309C0AADD64E083E0A7DD17C0203488E038079F
S11309D039F462E083E09FDD64E083E09CDD0CC0D9
S11309E02034394039F462E084E095DD64E084E049
S11309F092DD02C0CFBF09C08FB7F894E5E5F0E2FD
S1130A0090819F5F90838FBFCFBFCF910895811551
S1130A1028E0920729F460932820709329200895F0
S1130A20803428E0920729F460931C2070931D20E1
S1130A3008958034994021F4609314207093152014
S1130A4008951BBEFC0128ED24BF6083089516DDC4
S1130A50E8E4F0E08081817F84608083808181602C
S1130A608083889580818E7F808310DD10922E2074
S1130A7010922F20089580915C208F5F80935C20DA
S1130A80E0E0F6E0808581FD11C0809151209091D5
S1130A90522001968093512090935220109232203C
S1130AA0109230201092312020E00DC0809151200E
S1130AB090915220892B31F01092512010925220A3
S1130AC021E001C021E0E0E0F6E0808580FD11C076
S1130AD080914F2090915020019680934F209093C5
S1130AE0502010923220109230201092312020E0B9
S1130AF00AC080914F2090915020892B21F01092B0
S1130B004F2010925020E0E0F6E0808583FD11C074
S1130B1080914D2090914E20019680934D2090938A
S1130B204E2010923220109230201092312020E07A
S1130B300AC080914D2090914E20892B21F0109273
S1130B404D2010924E20E0E0F6E0808585FD11C036
S1130B5080914B2090914C20019680934B20909350
S1130B604C2010923220109230201092312020E03C
S1130B700AC080914B2090914C20892B21F0109237
S1130B804B2010924C20E0E6F6E0808580FD11C0F9
S1130B908091492090914A20019680934920909316
S1130BA04A2010923220109230201092312020E0FE
S1130BB00AC08091492090914A20892B21F01092FB
S1130BC0492010924A20E0E4F6E0808580FD11C0BF
S1130BD080914720909148200196809347209093DC
S1130BE0482010923220109230201092312020E0C0
S1130BF00AC08091472090914820892B21F01092BF
S1130C00472010924820E0E6F6E0808585FD11C07B
S1130C1080914520909146200196809345209093A1
S1130C20462010923220109230201092312020E081
S1130C300AC08091452090914620892B21F0109282
S1130C40452010924620E0E4F6E0808581FD0AC04C
S1130C508091432090914420019680934320909367
S1130C6044200FC08091432090914420892B49F067
S1130C708091432090914420019780934320909346
S1130C804420E0E6F6E0808586FD0AC0809141209C
S1130C9090914220019680934120909342200FC06E
S1130CA08091412090914220892B49F080914120EC
S1130CB09091422001978093412090934220E0E05C
S1130CC0F6E0808586FD0AC080913F209091402007
S1130CD0019680933F20909340200FC080913F2045
S1130CE090914020892B49F080913F2090914020A1
S1130CF0019780933F2090934020E0E0F6E08085C8
S1130D0084FD0AC080913D2090913E2001968093FD
S1130D103D2090933E200FC080913D2090913E2035
S1130D20892B49F080913D2090913E20019780933A
S1130D303D2090933E20E0E6F6E0808581FD0AC0E8
S1130D4080913B2090913C20019680933B2090938E
S1130D503C200FC080913B2090913C20892B49F08E
S1130D6080913B2090913C20019780933B2090936D
S1130D703C20E0E0F6E0808582FF14C080913720BB
S1130D8090913820A0913920B0913A200196A11D6C
S1130D90B11D8093372090933820A0933920B093CD
S1130DA03A201FC08091372090913820A09139209B
S1130DB0B0913A20892B8A2B8B2B99F08091372084
S1130DC090913820A0913920B0913A200197A1093F
S1130DD0B1098093372090933820A0933920B093A1
S1130DE03A20E0E4F6E0808582FF14C0809133204D
S1130DF090913420A0913520B09136200196A11D08
S1130E00B11D8093332090933420A0933520B09368
S1130E1036201FC08091332090913420A09135203A
S1130E20B0913620892B8A2B8B2B99F0809133201B
S1130E3090913420A0913520B09136200197A109DA
S1130E40B1098093332090933420A0933520B0933C
S1130E503620222351F080912E2090912F2001964C
S1130E6080932E2090932F20089510922E2010927C
S1130E702F20089500DE809169208F5F8093692080
S1130E8080915C208F5F80935C20809130209091D2
S1130E90312001968093302090933120809130202E
S1130EA090913120813D974068F01092302010924B
S1130EB0312080912E2090912F20019680932E2016
S1130EC090932F20E0E0F8E0848581608487089582
S1130ED0DC01FB012D913C91119780910C2090E055
S1130EE08217930770F42D913C91119780910B20F8
S1130EF090E02817390728F48081811102C081E02D
S1130F0080832D913C91119780910A2090E0821763
S1130F109307A8F48081853019F08081843079F4B6
S1130F208091092090E08D939C93119780910920E2
S1130F30833418F48E5F8093092083E0808380815A
S1130F40843019F08081853069F42D913C91809131
S1130F50082090E08217930728F082E0808380E3E2
S1130F60809309208081823039F08081813021F0A2
S1130F708081833009F045C080916A20480F4093F6
S1130F806A208081813039F484E0808380916A20F2
S1130F908F5F80936A208081833039F485E0808379
S1130FA080916A208D5F80936A208081823031F441
S1130FB0108280916A208E5F80936A2080916A20DB
S1130FC08823F9F08091532081111BC0F89465EABD
S1130FD080EC99E089D860915C2080EC99E084D819
S1130FE060916A2080EC99E07FD860915C208091C8
S1130FF06A20680F6B5580EC99E076D8789410924B
S11310006A200895CF92DF92EF92FF920F931F937D
S1131010FB01DC01CD90DD90ED90FC9013970091E5
S11310200C2010E020E030E00C151D052E053F05D6
S113103098F4CD90DD90ED90FC9000910B2010E0A1
S113104020E030E0C016D106E206F30628F4208141
S1131050211102C021E020832081243089F4DC01A5
S11310600D911D912D913C918091082090E0A0E07C
S1131070B0E080179107A207B30710F082E08083E5
S11310808081823019F080818130C1F480916A209E
S1131090480F40936A208081813011F484E080837A
S11310A08081823059F4108280915320811104C0D0
S11310B081E08093532002C0109253201F910F911E
S11310C0FF90EF90DF90CF90089540E56DE570E2DA
S11310D081E590E2FDDE40E66AE570E28FE490E2AD
S11310E0F7DE40E76CE670E28DE490E2F1DE40E882
S11310F065E670E28BE490E2EBDE40E96BE670E2D9
S113110089E490E2E5DE40EA6DE670E287E490E28D
S1131110DFDE40EB67E670E285E490E2D9DE42E090
S113112066E670E287E390E26DCF08958091322005
S113113081114BC08091072090E020914320309191
S113114044208217930758F421E020933220209101
S113115030203091312020932C2030932D20209169
S11311604120309142208217930758F422E02093C3
S11311703220209130203091312020932C20309344
S11311802D2020913F20309140208217930758F45E
S113119023E020933220209130203091312020937D
S11311A02C2030932D2020913D2030913E20821719
S11311B0930758F484E080933220809130209091FA
S11311C0312080932C2090932D20809132208130E7
S11311D051F480914320909144202091072030E0E5
S11311E02817390750F180913220823051F48091D0
S11311F04120909142202091072030E028173907A0
S1131200E0F080913220833051F480913F2090911E
S113121040202091072030E02817390770F0809192
S11312203220843091F480913D2090913E20209191
S1131230072030E02817390740F48091302090913E
S1131240312080932C2090932D208091072090E0D2
S113125020913B2030913C208217930738F4209151
S11312603220213019F425E02093322020913B20B4
S113127030913C208217930738F420913220223099
S113128019F426E02093322020913B2030913C2019
S11312908217930738F420913220233019F427E081
S11312A02093322020913B2030913C2082179307D9
S11312B038F420913220243019F428E0209332208D
S11312C020913220222369F120913220293048F5DF
S11312D0209130203091312040912C2050912D20AC
S11312E0241B350B25363105E0F010926E20109248
S11312F032201092432010924420109241201092E8
S1131300422010923F201092402010923D201092D3
S11313103E2010923B2010923C20109230201092DC
S1131320312020913220253009F06FC020913F20D8
S1131330309140208217930708F067C080913020D5
S11313409091312020912C2030912D20821B930BE1
S113135080932A2090932B2080912A2090912B20F7
S11313604E9730F480916E208E5F80936E2005C07E
S113137080916E208F5F80936E2080916E20805DBF
S113138080936E2080913020909131208093692049
S113139080915320811139C0F89465EA80EC99E07A
S11313A00E9474006091692080EC99E00E947400AE
S11313B060916E2080EC99E00E9474006091692035
S11313C080916E20680F6B5580EC99E00E94740048
S11313D010926E20109232201092432010924420DA
S11313E0109241201092422010923F2010924020EF
S11313F010923D2010923E2010923B2010923C20EF
S113140010922E2010922F207894809132208630D2
S113141009F072C080913D2090913E2020910720D8
S113142030E02817390708F067C080913020909188
S1131430312020912C2030912D20821B930B8093FE
S11314402A2090932B2080912A2090912B204E9734
S113145030F480916E208E5F80936E2005C0809161
S11314606E208F5F80936E2080916E20805F8093CA
S11314706E2080913020909131208093692080915A
S11314805320811139C0F89465EA80EC99E00E94F8
S113149074006091692080EC99E00E94740060916E
S11314A06E2080EC99E00E94740060916920809124
S11314B06E20680F6B5580EC99E00E9474001092C6
S11314C06E201092322010924320109244201092E9
S11314D041201092422010923F20109240201092FE
S11314E03D2010923E2010923B2010923C201092FE
S11314F02E2010922F20789480913220873009F08A
S113150072C080914320909144202091072030E0C4
S11315102817390708F067C0809130209091312056
S113152020912C2030912D20821B930B80932A2014
S113153090932B2080912A2090912B204E9730F469
S113154080916E208E5F80936E2005C080916E2006
S11315508F5F80936E2080916E20805C80936E20DC
S11315608091302090913120809369208091532084
S1131570811139C0F89465EA80EC99E00E94740006
S11315806091692080EC99E00E94740060916E2063
S113159080EC99E00E9474006091692080916E2033
S11315A0680F6B5580EC99E00E94740010926E20D5
S11315B01092322010924320109244201092412025
S11315C01092422010923F201092402010923D2011
S11315D010923E2010923B2010923C2010922E201C
S11315E010922F20789480913220883009F072C0B4
S11315F080914120909142202091072030E02817CB
S1131600390708F067C080913020909131202091F3
S11316102C2030912D20821B930B80932A209093B1
S11316202B2080912A2090912B204E9730F480918A
S11316306E208E5F80936E2005C080916E208F5F38
S113164080936E2080916E20805E80936E208091C6
S11316503020909131208093692080915320811112
S113166039C0F89465EA80EC99E00E9474006091B6
S1131670692080EC99E00E94740060916E2080ECF7
S113168099E00E9474006091692080916E20680F37
S11316906B5580EC99E00E947400109232201092F5
S11316A06E201092432010924420109241201092F8
S11316B0422010923F201092402010923D20109220
S11316C03E2010923B2010923C2010922E2010922B
S11316D02F2078940895E0E0F6E084E0828793E098
S11316E091878283E0E4F6E0828791878283E0EA4F
S11316F0F0E082837894E2ECF9E080818F7C80834F
S113170080638083E0EAF0E087E0828382818068FE
S1131710828378940895CF93DF9310926720109278
S11317206D2010926B201092652010926C20109204
S11317305A2010925D2010923220E0E0F6E092E010
S1131740928381E0828328E0228320E22283C0E620
S1131750D6E08A83A0E4B6E012968C9312972A838B
S113176080E1828380E4828312969C9312978A8319
S113177084E0828312968C9340E056E064E080E03B
S113178096E00E94530240E056E064E080E096E078
S11317900E94530243E050E068E080E696E00E9435
S11317A0530240E056E064E080E696E00E94530273
S11317B00E947B0260E070E280EC99E00E94860166
S11317C080E098E0F2D86AE377E080E098E01FD9FF
S11317D0E0E0F8E08181887F81838AE090E086A35D
S11317E097A386818C7F868386818160868387E048
S11317F0E0EAF0E082837894E0E0F8E08081807FA2
S11318008760808385E00E942B020E94460263DF8A
S113181010925320DF91CF9108957DDF809137207E
S113182090913820A0913920B0913A208C32924086
S1131830A105B105C8F00E943E02F89465EA80EC67
S113184099E00E94740064E080EC99E00E947400C6
S113185064E080EC99E00E9474006DEA80EC99E009
S11318600E9474007894FFCFC1E0A8952EDCA8955F
S11318705DDCA89580912E2090912F208C359B4281
S113188028F0C0935320E3D810925320A895809158
S1131890372090913820A0913920B0913A208C3291
S11318A09240A105B10508F3C6CF1F920F920FB65F
S11318B00F9211248F93EF93FF93E0E0F6E0848579
S11318C084608487FF91EF918F910F900FBE0F90EA
S11318D01F9018951F920F920FB60F9211248F9399
S11318E0EF93FF9380915320811110925320E0E4F1
S11318F0F6E0848584608487FF91EF918F910F9047
S11319000FBE0F901F901895A1E21A2EAA1BBB1BA5
S1131910FD010DC0AA1FBB1FEE1FFF1FA217B307B7
S1131920E407F50720F0A21BB30BE40BF50B661FCD
S1131930771F881F991F1A9469F760957095809591
S113194090959B01AC01BD01CF010895F894FFCFA0
S111195000E1000003000004053055190500F5
S9030000FC
