:0400000064EF0BF0AE
:100D00002E000000496AC4EC0BF0000E2BEC0CF036
:100D10004966ECD04D6AE3D0080E4D600ED04DC050
:100D200047F0010E486E472A02D0D8904836472E29
:100D3000FCD748504B6E4C6A0FD04B6A4DC047F001
:100D4000F80E4726010E486E472A02D0D890483642
:100D5000472EFCD748504C6E4BC004F00B0E056E6E
:100D6000020E066E4C5089EC0BF0026A140E016EF6
:100D7000DDEC0BF04BC004F0050E056E030E066EA5
:100D80004C5089EC0BF0026A140E016EDDEC0BF096
:100D90004BC004F00C0E056E066A4C5089EC0BF04B
:100DA000026A140E016EDDEC0BF04CC006F04BC075
:100DB00007F0FE0E086E4D5049EC0AF00201020EDB
:100DC000026E000E016E4D5043EC0CF0026A140EE0
:100DD000016EDDEC0BF04BC004F0050E056E010E4C
:100DE000066E4C5089EC0BF0026A140E016EDDECBD
:100DF0000BF04BC004F00C0E056E066A4C5089ECEB
:100E00000BF0026A140E016EDDEC0BF04CC006F024
:100E10004BC007F0FE0E086E4D5049EC0AF0026A16
:100E2000140E016EDDEC0BF00201020E026E7E0E5E
:100E3000016E4D5043EC0CF0010E406E000E3F6E03
:100E40000201020E426E000E416E020E446E7E0ED4
:100E5000436E4DEC08F0DAEC08F00AC04EF00BC01F
:100E60004FF00CC050F04EC001F04FC002F050C027
:100E700003F0330E046E730E056E400E066E11EC19
:100E80000BF02CE34EC001F04FC002F050C003F055
:100E9000330E046E730E056E400E066E11EC0BF0F1
:100EA0000FE34EC001F04FC002F050C003F0330E0C
:100EB000046E830E056E400E066E11EC0BF00EE311
:100EC0004EC001F04FC002F050C003F0330E046E6C
:100ED000830E056E400E066E11EC0BF04D2A52503B
:100EE0004D5C01E219D7010E496E12D74A6A0FD044
:100EF0004A50120D0101000EF324026E010EF4207F
:100F0000036E0CEC0CF02C0E2BEC0CF04A2A525019
:100F10004A5CEEE3026A0A0E016EDDEC0BF0496AF0
:100F2000F7D60F0E0F6E09C010F00AC011F00BC0FB
:100F300012F00F28136E04D0D890123211321032F2
:100F4000132EFAD71050166E0F0E0F6E0CC010F045
:100F50000DC011F00EC012F00F28136E04D0D890FF
:100F6000123211321032132EFAD71050156E16505D
:100F700009E0155016600DD01650155C0F6E190E55
:100F80000F5C07E30CC009F00DC00AF00EC00BF0B7
:100F90001200155009E0165015600DD01550165C62
:100FA0000F6E190E0F5C07E309C009F00AC00AF0C2
:100FB0000BC00BF01200060E146E0BBE148E0EBE8C
:100FC000148C0A8E0B6A0D8E0E6A1550166016D0A0
:100FD000D8900C360D360E361506155016180AE048
:100FE00014061450070B06E0F3D7D8900B320A32E0
:100FF0000932162A15501662F8D718D01650156007
:1010000015D0D89009360A360B3616061550161824
:101010000AE014061450070B06E0F3D7D8900E32FE
:101020000D320C32152A15501662F8D714AE07D0BF
:10103000091E0A1E0B1E092A000E0A220B2214ACDE
:1010400007D00C1E0D1E0E1E0C2A000E0D220E22A5
:10105000146A09500C260A500D220B500E220EAEB7
:1010600009D00C1E0D1E0E1E0C2A000E0D220E2283
:10107000010E146E0CC001F00DC002F00EC003F0A2
:1010800016C004F014C005F099EC0AF001C009F094
:1010900002C00AF003C00BF01200456A86D0466A0F
:1010A0004650020D45504324D96E000E4420DA6E9E
:1010B000DF50F324D96EDA6ADECF09F0DDCF0AF013
:1010C000A9EC0BF009C03CF00AC03DF00BC03EF0AB
:1010D000700E396E3D0E3A6E450E3B6EF5EC0BF020
:1010E00039C01AF03AC01BF03BC01CF04650020D4C
:1010F00045504324D96E000E4420DA6EDF50F324AD
:10110000D96EDA6ADECF09F0DDCF0AF0A9EC0BF078
:1011100009C03CF00AC03DF00BC03EF04650020D45
:1011200045504124D96E000E4220DA6EDF50F32480
:10113000D96EDA6ADECF09F0DDCF0AF0A9EC0BF048
:1011400009C039F00AC03AF00BC03BF0F5EC0BF0E7
:1011500039C017F03AC018F03BC019F0DAEC09F0CA
:1011600017C028F018C029F019C02AF02B6A800E89
:101170002C6E400E2D6E5DEC09F04650030D45506F
:101180003F24D96E000E4020DA6EDF50F324D96E72
:10119000DA6A28C0DEFF29C0DEFF2AC0DDFFDD528B
:1011A000462A050E46647CD7452A5250455CD8B085
:1011B000120075D7136A4CD0106A116A126A0F6A4E
:1011C00010C001F011C002F012C003F01350120D54
:1011D0000101000EF3240D6E010EF4200E6E0F506F
:1011E000030DF3500D24D96EF4500E20DA6EDECFCD
:1011F00004F0DECF05F0DDCF06F011EC0BF016E2C7
:101200001350120D000EF3240D6E010EF4200E6E1D
:101210000F50030DF3500D24D96EF4500E20DA6EEA
:10122000DECF10F0DECF11F0DDCF12F00F2A050E69
:101230000F64C6D71350030DF3500001600FD96E31
:10124000DA6A10C0DEFF11C0DEFF12C0DDFF132A14
:101250005250135CB1E3106A116A126A136A23D008
:1012600010C001F011C002F012C003F01350030DC2
:10127000F3500001600FD96EDA6ADECF04F0DECFE2
:1012800005F0DDCF06F011EC0BF00CE21350030D6E
:10129000F350600FD96EDA6ADECF10F0DECF11F0B6
:1012A000DDCF12F0132A5250135CDAE310C00AF0BB
:1012B00011C00BF012C00CF012000F0E2E6E28C0E1
:1012C0002FF029C030F02AC031F02E28326E04D021
:1012D000D890313230322F32322EFAD72F50336E2F
:1012E000336604D0286A296A2A6A12000F0E2E6E0D
:1012F0002BC02FF02CC030F02DC031F02E28326ED4
:1013000004D0D890313230322F32322EFAD72F50CB
:10131000386E386604D0286A296A2A6A1200385062
:101320007B0F33262AC038F02D50381A800E38161D
:10133000298E2C8E000E2D16346A356A366A070EF9
:10134000376E28A006D02B5034262C5035222D5035
:101350003622D8902A3229322832D8902B362C3691
:101360002D36372EEED7090E376E28A006D02B501B
:1013700034262C5035222D503622D8902A3229324C
:101380002832D890363235323432372EEED734C048
:1013900001F035C002F036C003F033C004F038C0AD
:1013A00005F099EC0AF001C028F002C029F003C052
:1013B0002AF012000F0E1D6E17C01EF018C01FF08D
:1013C00019C020F01D28216E04D0D89020321F3281
:1013D0001E32212EFAD71E50266E266604D0176ABA
:1013E000186A196A12000F0E1D6E1AC01EF01BC07B
:1013F0001FF01CC020F01D28216E04D0D890203290
:101400001F321E32212EFAD71E50276E276604D0B7
:10141000176A186A196A1200236A246A256A275013
:10142000890F265E19C027F01C50271A800E271638
:10143000188E196A1B8E1C6A180E226ED8902336DD
:10144000243625361A50175C1B5018581C50195852
:1014500007E31A50175E1B50185A1C50195A238064
:10146000D890173618361936222EE8D723C001F047
:1014700024C002F025C003F026C004F027C005F008
:1014800099EC0AF001C017F002C018F003C019F07F
:101490001200E8CF0BF08B90010E016E026A020E73
:1014A0003DEC0BF0026A140E016EDDEC0BF0065001
:1014B0001FEC0CF0C7A0FED7026A140E016EDDEC23
:1014C0000BF007501FEC0CF0C7A0FED7026A140EF9
:1014D000016EDDEC0BF008501FEC0CF0C7A0FED73E
:1014E000026A140E016EDDEC0BF00C6A026A0A0E41
:1014F000016EDDEC0BF00B500E0D0301000EF3241A
:10150000096E030EF4200A6E0C500924D96E000EE9
:101510000A20DA6E3CEC0CF0DF6E026A280E016ED7
:10152000DDEC0BF00C2A0D0E0C64E0D7C69A8B8014
:101530000D0C045004E001500210031009E1016A8F
:10154000026A036A1200042AD8900332023201327E
:10155000066A076AFE0E0314086E0650071008108C
:101560000AE0F1D7042A012A000E02220322D890B1
:10157000033202320132066A076A0350086E0650CF
:101580000710081006E0EED70406D89001360236A0
:10159000033602AEF9D704A0029ED890043204505C
:1015A000086E076A066A06500112075002120850B8
:1015B00003120550D8A4038E01C001F002C002F04E
:1015C00003C003F01200E8CF03F0AC6AAB6A03B0CB
:1015D000AC8803A202D0AC8CAB8C03B4AC8E03A657
:1015E00002D0AB8801D0AB8A03B8AC849E9803BA12
:1015F000AB8603AC02D09D8A01D09D9A9E9A03AE21
:1016000002D09D8801D09D9801C0AFFF0250B06EFE
:10161000AC8AAB8E949C948EACB8ACBE1200948C09
:10162000120003AE0DD0076A086A800E096E0150E1
:10163000075C016E02500858026E03500958036E91
:1016400006AE0DD0076A086A800E096E0450075C6A
:10165000046E05500858056E06500958066E800E37
:10166000031A061A0450015C05500258065003582C
:1016700002E2D8901200D8801200E8CF03F03F0EAB
:10168000C716C66A0350C6120250C71205D0C78CCF
:1016900011D0C78CC6880ED00150F9E0020AF9E0DB
:1016A000010AF8E007D09486928A0AD0948608D07E
:1016B000949606D00350040AF6E0010AF7E0F8D742
:1016C0009488949AC68A120003EE00F07E0EEE6AA9
:1016D000E806FDE102EE00F0FC0EEE6AE806FDE130
:1016E00001EE00F0A20EEE6AE806FDE100EE60F009
:1016F000420EEE6AE806FDE100EE4EF0120EEE6AD2
:10170000E806FDE1000EF86E0D0EF76E000182EFA7
:1017100006F0E8CF07F08B90010E016E026A020E10
:101720003DEC0BF007501FEC0CF0C7A0FED70450A7
:101730001FEC0CF0C7A0FED705501FEC0CF0C7A0A3
:10174000FED706501FEC0CF0C7A0FED7C69A8B80C0
:1017500012000C6A0AAE06D0096C0A1ED8B00A2A1A
:10176000010E0C6E09C001F00AC002F0036A8E0E71
:10177000046E0CC005F099EC0AF001C009F002C03B
:101780000AF003C00BF01200926A060E936E900EE0
:10179000946E956A806A816A826A836A700ED36EDB
:1017A00035EC0CF0026A330E016E000EE3EC0AF029
:1017B000C69A9D96010E526E010C046A056A0AD003
:1017C000030E036E970EE82EFED7032EFCD700D033
:1017D000044A052A0250800A036E0450015C055039
:1017E000800A0358D8A01200EBD7800E3E1A39C0E9
:1017F00009F03AC00AF03BC00BF03CC00CF03DC011
:101800000DF03EC00EF091EC07F009C039F00AC0AF
:101810003AF00BC03BF01200ACA2FED702C0D9FFD9
:1018200003C0DAFFDF502BEC0CF002C0D9FF03C07D
:10183000DAFF024A032ADF50D8B41200EDD7E8CF0E
:1018400001F0C9509E96C69E01C0C9FFC6BE1200D7
:101850009EB61200FDD7E8CF01F0ACAC03D0AC903F
:1018600051B2AC8001C0ADFF1200CB6A050ECA6E4A
:10187000BE6A1C0EBD6E1C0CC9509E96C96A9EA6FF
:10188000FED7C9501200036A032A060E0364FCD770
:08189000060CC69A9D96120099
:020000040020DA
:08000000FFFFFFFFFFFFFFFF00
:020000040030CA
:0E000000FFC91F1EFF8281FF0FC00FE00F40DF
:00000001FF
